:020000040800F2
:100000005017012031030008390300083B030008A2
:100010003D0300083F030008410300080000000002
:100020000000000000000000000000004303000882
:100030004503000800000000470300085DE50B08C9
:100040004B0300084B0300084B0300084B03000858
:100050004B0300084B03000819D8050881D8050890
:1000600095D80508A9D80508E9D805084B03000864
:100070004B030008934200085B6300084B03000831
:100080002B090008110900084B0300084B03000866
:100090004B0300084B0300084B030008FDD805087C
:1000A0004B0300084B0300084B0300084B030008F8
:1000B0004B03000883ED00084B0300082D71000876
:1000C0004B0300084B0300084B0300082B270008D4
:1000D0003527000873080008AD0800084B03000826
:1000E0002DD805084B0300084B0300084B030008FC
:1000F0004B0300084B0300084B0300084B030008A8
:100100004B030008732400084B0300084127000834
:100110004B0300084B03000821E80B082594040852
:100120004B0300084B0300084B0300084B03000877
:100130004B0300084B0300084B0300084B03000867
:100140004B0300084B0300084B030008A56C040890
:10015000D50800084B030008B70800084B03000847
:100160004B0300084B0300084B0300084B03000837
:100170004B0300084B0300084B030008000000007D
:100180004B0300084B0300084B0300084B03000817
:100190004B0300084B0300084B0300084B03000807
:1001A0004B0300084B0300084B03000800F002F863
:1001B00000F090F80AA090E8000C82448344AAF171
:1001C0000107DA4501D100F085F8AFF2090EBAE86F
:1001D0000F0013F0010F18BFFB1A43F0010318477B
:1001E0007C690E009C690E000A444FF0000C10F868
:1001F000013B13F0070408BF10F8014B1D1108BFA5
:1002000010F8015B641E05D010F8016B641E01F844
:10021000016BF9D113F0080F1EBF10F8014BAD1C94
:100220000C1B09D16D1E58BF01F801CBFAD505E0B2
:1002300014F8016B01F8016B6D1EF9D59142D6D30C
:10024000704700000023002400250026103A28BF34
:1002500078C1FBD8520728BF30C148BF0B60704738
:100260006E2917F0C7A2702917F092A3692917F019
:1002700085A2642917F082A2752917F07FA26F2941
:1002800017F02AA3782917F076A30368DB0928BFA3
:1002900041F08001632918F074A0732918F079A047
:1002A000E32918F097A0002070471FB5C9F02FFB75
:1002B0009DE8030057F0A4FF57F081FD58F018FBAC
:1002C000040000200021C8F015FC401C60601FBD28
:1002D00010B510BD58F0E7FA1146FFF7E6FFC3F07E
:1002E000B9FC58F009FB03B4FFF7F2FF03BC07F0B9
:1002F00070FE000080F30888704700000B49D1F8B9
:1003000000C04A685CF8043B1068184442F8040BCB
:100310008C4528BFA1F1DC0C8A4228BFA1F1DC0288
:10032000C1F800C04A6020F000407047E81001208A
:100330000948804709480047FEE7FEE7FEE7FEE779
:10034000FEE7FEE7FEE7FEE7FEE7FEE704480549B5
:10035000054A064B7047000011E80B08AD01000884
:10036000501101205017012050130120501301207B
:1003700070B500257B4C012628B101280CD002283D
:1003800013D0012070BD784843F0B6FB08B165700A
:1003900000E06670607870BD74480068232802D061
:1003A000A670A07870BDA570FBE77148006823288F
:1003B00002D0E670E07870BDE570FBE7694928B1CE
:1003C000012805D0022805D00120704748787047E1
:1003D00088787047C87870472DE9F04101241646A7
:1003E0000F46022809D843B15E4D0121297038B16A
:1003F00001280ED0022819D027E00420BDE8F081A2
:100400006878C00715D11A463146384646F07CFC5C
:1004100019E0A878C0070CD154480068232814D1EB
:1004200001223146384602F048F80CE0E878C0076F
:1004300001D0032409E04E480068232805D139463D
:10044000104603F0F1FB00B900240020287020467C
:10045000D4E72DE9F04701241F469046894605461A
:1004600002280BD857B1C8F02FFB3E4E0120307048
:100470003DB1012D11D0022D1FD032E00420BDE886
:10048000F0877078C0071BD1707840071DD43A46BA
:100490004146484646F0A2FC21E0B078C0070FD1A3
:1004A000B078400711D431480068232819D10122BF
:1004B0004146484602F033F811E0F078C00701D019
:1004C00003240EE0F078400701D5022409E0284813
:1004D0000068232805D14946404603F0BAFB00B91D
:1004E0000024002030702046C9E770B514460D4640
:1004F000064601281CD8C8F0E7FA01201949420233
:1005000026B18978C90715D0032070BD4978C9077D
:10051000FAD135B1012D06D0022D20D0032D07D1FF
:1005200004E0002070BD1348006816E0226070BD32
:10053000042070BD002DF4D00F49012D07D0022DED
:100540000DD0032DF4D1B1F84310218070BD51F8C6
:100550003B0F0023496857F06BF82060E1E72280E9
:10056000DFE700009005002004E000209803002051
:10057000F4030020B0090120809600202DE9F0410D
:100580000D46FF49002416464C708C700C70FD49D6
:100590004FF47A52B1FBF0F700FB1711A1FB02C137
:1005A00002462346604656F0CCFF00F5FA704FF441
:1005B0007A71B0FBF1F007EB101100F00F0000EBC7
:1005C0000111F14801816C218181818929433143E5
:1005D0008181290C01828482818941F400518181C9
:1005E000BDE8F0812DE9F0410D46E54900241646AD
:1005F000CC700C71E5494FF47A52B1FBF0F700FB77
:100600001711A1FB02C102462346604656F099FF2E
:1006100000F5FA704FF47A71B0FBF1F007EB1011AE
:1006200000F00F0000EB0110D94908800C22081DD2
:1006300002800188294331430180290C031D198060
:10064000C0211B1D1980018841F400510180D1484F
:100650008461CF4B1B1F0362CF4941628162C46139
:10066000C462CE49816104608360CD49C16001618B
:1006700042604461C94938390160016841F00101B3
:100680000160ADE770B50646BF4CBD4D01E0C8F056
:100690001BFA69780029FAD101E0C8F015FA208820
:1006A0000006FAD5A68070BD2DE9F041B44F05468D
:1006B0000020F860B8707878002891D12C46B94EA7
:1006C00005E00A5C3255401C641E80B2A4B2002CC6
:1006D000F7D1AD4C15B983E7C8F0F6F920880006CC
:1006E000FAD5705DA0806D1E7D7079E770B5044607
:1006F000A3484278002A1BD1AA4D03E08B5CAB547F
:10070000521C92B2A242F9D3002C11D044709E4EDA
:1007100001E0C8F0D9F930880006FAD5A248056092
:10072000A14808380460001F016841F00101016020
:1007300070BD70B50546924C01E0C8F0C5F960780F
:100740000028FAD1924C083C2188080602D4C8F04F
:10075000BBF9F9E78E48001F058070BD2DE9F04117
:10076000874D4FF000080F460446C5F8108001E0A1
:10077000C8F0AAF9E8780028FAD120460021864E70
:1007800007E07A5C325401F10101A0F1010089B265
:1007900080B20028F5D185F80480002C0CD0834F5E
:1007A0003888000602D4C8F08FF9F9E7305D78493F
:1007B000091F0880641EEC7012E72DE9F047704EA7
:1007C0004FF000090446C6F81090F078002845D193
:1007D00071480022804603E08B5C8354521C92B225
:1007E000A242F9D3002C39D0F470704F01E0C8F068
:1007F0006BF938880006FAD56848664D3838883D68
:10080000C5F8880001E0C8F05FF9D5F88800C00796
:10081000F9D16748E860388840F22F31084207D0A4
:100820003888F0805A48001F00883081A7F800906F
:1008300086F8059098F801004146032810D0102052
:100840008835574AEA606860286840F001002860EF
:100850006962EC61A86940F00100A861BDE8F08719
:100860004879052202EB40004FF6FF7202EA400091
:10087000E6E7454801884A0641490DD54A7842B124
:10088000484A4B78D25C82804A78A2F101024A70D1
:1008900002E04FF6BF7202800288920605D5828878
:1008A000CA60CA6882800020C86070473F494FF61E
:1008B000FF70088070473C48C038006810F0746FC3
:1008C00007D039494FF07460B83908602C490020CE
:1008D0004870704731493448383910B53C380160A8
:1008E000274A0021D160304C4FF47463B83C236038
:1008F000254B1980998851812B4A2E49303A116035
:100900001021021D1160016841F00101016010BD5C
:1009100020488838416811F4741F05D04FF47411D1
:10092000C16017490020C870704715480021016157
:10093000184B4FF47462883BDA60194A1278012A26
:1009400002D10171012141717047F0B51A4EFF23A8
:100950001C4606F5807705E010F8015B5D40735D8D
:1009600063407C5D0D00A1F1010189B2F4D12AB38D
:100970000178994224D14078A04221D10120F0BDD4
:1009800094050020808D5B0000100140C0C62D0042
:100990000844004088600240288500205004000878
:1009A00010840020F8820020C4640240004400400B
:1009B000400F3D00E08100205C3B0E080370447056
:1009C0000020DCE74FF0204043F259010160264946
:1009D00041606FF07041C0F8041100F04BB830B5C1
:1009E000C0F1040501200024A840084340EA421059
:1009F00040EA43214FF02040C0F850114FF400125C
:100A000004E0641C944201D3012030BDD0F8581199
:100A10008906F6D4002030BD10B5144C41F6D9102B
:100A200020601348A06000231A4601211846FFF7F2
:100A3000D6FF032059F010FB00231A460221184666
:100A4000FFF7CDFF0023082203211846FFF7C7FF59
:100A5000002240F2312304211046FFF7C0FF40F28C
:100A6000B450606110BD000035081200400100A0C4
:100A700061551301F0B5FF4CFF4A4AF6AA212180C7
:100A8000002353615069401C50610228FAD3FB4E89
:100A900045F25555358053615069401C506102281C
:100AA000FAD349F29000208053615069401C506194
:100AB0000228FAD34FF0C047388810801088C0B29F
:100AC0001080788850801088BF2815D15088A0F5F4
:100AD0000C576B3F0ED05088A0F50C576D3F09D0D6
:100AE0005088A0F50C575B3F04D05088A0F50C57F8
:100AF0005D3F01D1012000E0002021805361516958
:100B0000491C51610229FAD3358053615169491C4E
:100B100051610229FAD34FF2F001218053615169EA
:100B2000491C51610229FAD3F0BDD34918B1088894
:100B3000BF2802D00DE0488870474888A0F50C52C5
:100B40006B3A04D04A88A2F50C506D3801D10120CF
:100B500070470888BF2815D14888A0F51C52823AF2
:100B60000ED04888A0F50C524B3A09D04888A0F521
:100B70000C525B3A04D04888A0F50C515D3901D184
:100B8000022070470020704719210020401C884235
:100B9000FCD37047F0B5B74CB74A4AF6AA25258072
:100BA000002353615069401C50610228FAD3B34FAF
:100BB00045F255563E8053615069401C50610228F1
:100BC000FAD349F69800208053615069401C506167
:100BD0000228FAD3FFF7D8FF258053615069401CE3
:100BE00050610228FAD33E8053615069401C506125
:100BF0000228FAD34FF2F000208053615069401C64
:100C000050610228FAD3F0BD2DE9F0414FF0C04603
:100C100000243078771200F04005307800F0400072
:100C2000854205D00546641CC7F04EFFBC42F4D394
:100C3000BDE8F08170B5C7F047FF8E4B8E494AF68C
:100C4000AA241C8000224A614869401C486102288D
:100C5000FAD38A4E45F2555535804A614869401CA1
:100C600048610228FAD348F2800018804A61486936
:100C7000401C48610228FAD31C804A614869401C24
:100C800048610228FAD335804A614869401C4861AE
:100C90000228FAD341F210001880FFF7B5FFBDE833
:100CA000704071E72DE9F0410446C7F00DFF714D2A
:100CB000714A4AF6AA2CA5F800C000235361516975
:100CC000491C51610229FAD36C4F45F255563E80BA
:100CD00053615169491C51610229FAD348F28000DD
:100CE000288053615069401C50610228FAD3A5F84E
:100CF00000C053615169491C51610229FAD33E80F9
:100D000053615069401C50610228FAD3E00210611F
:100D1000508800F00F014FF0C0400D2909D043F278
:100D20003001126920F81210FFF76EFFBDE8F041A4
:100D30002AE745F25001F4E72DE9F0410446C7F0F7
:100D4000C3FE4C4D4C4A4AF6AA2CA5F800C000231D
:100D500053615169491C51610229FAD3474F45F249
:100D600055563E8053615169491C51610229FAD39D
:100D700048F28000288053615069401C506102286D
:100D8000FAD3A5F800C053615169491C5161022989
:100D9000FAD33E8053615069401C50610228FAD357
:100DA000E0031061508800F00F014FF0C0400D29A2
:100DB00009D045F25001126920F81210FFF724FF04
:100DC000BDE8F041E0E643F23001F4E7012070476E
:100DD0002DE9F05FDFF89CA0DFF89C800E46054609
:100DE00003244AF6AA2B4FF00009AAF800B04B469C
:100DF0004146C8F814904A69521C4A61022AFAD343
:100E00001E4A45F2555010804B614869401C4861AC
:100E10000228FAD34AF2A000AAF800004B61486900
:100E2000401C48610228FAD34FF0C04000EB46074F
:100E30003D80FFF7E9FE3888A84204D0641E14F014
:100E4000FF04D2D103E014B10120BDE8F09F0020DF
:100E5000FBE72DE9F047DFF81C90074F0D460646EB
:100E600003244AF6AA2A4FF00008A9F800A0414638
:100E700006E00000AAAA0060AC05002054550060FE
:100E8000C7F814807869401C78610228FAD3EB4BCC
:100E900045F25550188079617869401C78610228C4
:100EA000FAD34AF2A000A9F8000079617869401CE1
:100EB00078610228FAD32E80FFF7A6FE2888B04278
:100EC00004D0641E14F0FF04CFD103E014B101205C
:100ED000BDE8F0870020FBE72DE9F05FD84F894699
:100EE000064603254FEAC12A00F580544FF0000B57
:100EF0004FF0C0484846FFF7D5FEC7F810A0FE6087
:100F0000C7F0E2FD2DE0DFF83CC34AF6AA215B46BC
:100F1000ACF80010C7F814B07969491C796102294E
:100F2000FAD3C64A45F2555111807B617969491C53
:100F300079610229FAD34AF2A001ACF800107B6172
:100F40007969491C79610229FAD301883A6928F83C
:100F50001210F868801CF8603869401C3861FFF78F
:100F600053FEF868A042CED308EB0930C7E9020669
:100F700008E00288B9680B889A4206D1801C891C57
:100F8000C7E90210F868A042F3D3A04206D2FFF7E7
:100F9000FBFD6D1E15F0FF05ACD102E00DB1012087
:100FA00053E7002051E72DE9F05F0325A44C8A4662
:100FB00007464FEAC13B00264FF0C0494FF40048B6
:100FC0005046FFF7B9FEC7F07FFDC4F810B0E760E8
:100FD000A6802CE09B494AF6AA20088066616069D9
:100FE000401C60610228FAD3944A45F255501080A3
:100FF00066616069401C60610228FAD34AF2A00071
:10100000088066616069401C60610228FAD3E0686C
:101010000188226929F81210E068801CE060FFF75F
:10102000F3FD2069401C2061A088401CA080A0889E
:1010300042469042CED309EB0A40C4E90207A6809B
:101040000DE0E1680B88A068B0F800C0634509D1E5
:10105000891C801CC4E90201A088401CA080A088D3
:101060009042EED3A088404506D2FFF78DFD6D1E5D
:1010700015F0FF05A4D102E00DB10120E5E6002046
:10108000E3E610B50446C7F01FFD4FF0C04030F84E
:10109000140010BD2DE9F0410E460546C7F014FDC1
:1010A00003225007664F05F5805400EB063CC7E964
:1010B00002C507E0B968098820F8021BF860B86823
:1010C000801CB860F868A042F4D3C7E902C508E004
:1010D0000B88B8680688B34206D1891C801CC7E912
:1010E0000201F968A142F3D3A14204D2521E12F0C8
:1010F000FF02DCD102E00AB1012099E5002097E56A
:101100002DE9F05FC1F30B05DFF83C91C5F5805484
:101110008A46064617464FEA113BA24200D81446BB
:1011200059464846FFF7B6FF0020014608E02B1855
:1011300019F80320335C9A4201D0012109E0401CD8
:10114000A042F4D305E02B1819F80320FF2A02D19E
:10115000401CA042F7D3A0420DD2002004E0325C34
:101160004319401C09F80320A042F8D359464846C9
:10117000FFF7B2FE0DE061B100254FEA5A0806E024
:10118000414608F10108705BFFF722FEAD1CA54245
:10119000F6D3A7420BD02644A2443F1B00254FF4B0
:1011A00080540BF1010BA742BAD83C46B8E74CE695
:1011B00070B506464D081446C80708D03CB128460D
:1011C000FFF75FFF000A6D1C06F8010B641EE007C5
:1011D00008D0641C06E02846FFF753FF6D1C26F874
:1011E000020BA41E002CF6D170BD30B54FF0C044E8
:1011F00048F2800534F810000123002229402840DD
:101200006FF07844814200D10023521CA24201D2E7
:10121000002BF7D130BD0D490020401C8842FCD383
:1012200070470B490020401C8842FCD370474FF4A4
:10123000BE710020401C8842FCD3704754550060AA
:10124000AC050020AAAA006040860020C027090043
:10125000C0C62D00C54908757047C54BC44A8033C8
:10126000012901D049B10DE018B1186840F0010022
:1012700007E0106840F001000EE050B1186820F05F
:1012800001001860BA486038016841F0010101604E
:101290007047106820F001001060F3E7F0B4B44F1D
:1012A000049C783FCE18D7F800C01519CCF30B4C2E
:1012B0006644D7F800C0CCF30B4C614401F1010146
:1012C00041EA064140B3AA4E843631603968C1F321
:1012D0000A0129443D68C5F30A052A44521C42EA22
:1012E0000142311D0A60A2499031096811F00701DD
:1012F0003ED001293ED005293ED006293CD002210E
:101300004B439B4AD91CAC3241EA03411160111D89
:101310000C60F0BC0121A0E7954E361D31603968A4
:10132000C1F30A0129443D68C5F30A052A44521C49
:1013300042EA0142311D0A608D491031096811F0FD
:1013400007010FD001290FD005290FD006290DD094
:1013500002214B43864AD91C2C3241EA03411160D9
:10136000111DD5E70421F4E70321F2E70121F0E79D
:101370000421C5E70321C3E70121C1E7F0B5DDE999
:101380000554DDE9077646EA056547EA042460B1BD
:101390007748A8300160764890300260001D0360F5
:1013A000001D0560001D0460F0BD7148283001601B
:1013B0006F4810300260001D0360001D0560001DB5
:1013C000F1E7F0B56B4C00230746256818461E462A
:1013D00025F08055256041F6FF7502E003F1010319
:1013E0009BB2D4F800C05FEA8C0C01D5AB42F5D3B8
:1013F000AB4201D10120F0BD46EA871646EA0171F1
:101400005C4E88363160311D0E6826F440360E6021
:101410000E6846EA02420A60216841F0805121606C
:1014200002E003F101039BB22168890001D4AB42C1
:10143000F7D3AB42DFD10220F0BD2DE9FF4F4B4E79
:101440004FF4487A4FF4F078C6F800A0C6F804804C
:101450000120308170812E20B0811720F081D220B0
:101460003082162070820024012203214FF4C670BE
:10147000FFF7A7FF40494FF4006048833C4B6C3BAB
:101480001C60758932893D4C681E04EB02410143A2
:1014900037487C380160F0892918B0894D1E104406
:1014A00004EB00422A43324D783D2A607268551E93
:1014B0004F19358800EB050C04EB0C4C4CEA070C7B
:1014C0002B4F743FC7F800C0778A3A441144328AE0
:1014D000491E2A44104404EB00400843191F0860C9
:1014E0002348002458380460186840F00100186050
:1014F0002448234D062105600220C6F81A00072063
:10150000CDE90041CDE90204FF2302222946002053
:10151000FFF734FFB088002280B200903088114677
:1015200083B21046FFF7BAFE0023DFF85CB0DFF8A5
:101530005CC034751A46A9464FF6FF77C2EB021518
:1015400009EB85110BEB851600200CEB851521F8B6
:10155000103026F8107025F81040401C4045F6D396
:10156000521C5245EAD3BDE8FF8F00004096002090
:101570008468014000380240002002400000FFFF64
:10158000000000C0C405002000B80BC0007017C0E8
:101590000021012803D010B1262108467047FE4AD9
:1015A0005070FAE7FD4A116821F0FF010143116014
:1015B0007047FA4A3032116811F0450FFBD0F84AF3
:1015C0004B0703D50420106003207047C90702D0E1
:1015D000012010607047F1490C310968814201D047
:1015E0001020704740F2FF501060EC481030006847
:1015F00000F008007047E94B1B1D1A601B1D1A689C
:1016000000F03F006FF30A02104340EA811040F4FB
:1016100080601860704710B5E14C143C206021F0E8
:101620007E40211D0860091D086820F0F70040EA8F
:10163000021003F0010240EA420040F0010008609D
:1016400010BDFCB500240D46064600940822012179
:1016500010200194FFF7CFFF1020FFF7AAFF00280A
:101660002CD1320401213720FFF7C5FF3720FFF7C7
:10167000A0FF002822D1012303220821401EFFF7EA
:10168000CAFF002201213320FFF7B5FF3320FFF707
:1016900090FFC34A121F002810D1C14B694648333E
:1016A00040F22A661768374209D011680B07BC4917
:1016B0000FD5086840F0080008600420FCBD1768DA
:1016C000BF02EFD51F6841F82470641C022CE9D3D7
:1016D000EBE713689B0705D5086840F00200086037
:1016E0000220FCBD13689B0605D5086840F0200069
:1016F00008600620FCBD1268920505D5086840F414
:10170000007008600720FCBD40F2FF520A6000999B
:1017100009BA6960019909BA2960FCBD3CB500218C
:1017200000910C46019100B102249C4810300068E1
:10173000800101D50E203CBD974D6946288980B2B5
:10174000FFF77FFF0028F6D10198400313D52889C1
:10175000012102043720FFF74EFF3720FFF729FF52
:101760000028E8D1224601210620FFF744FF062089
:10177000FFF71FFF3CBD25203CBD10B58649044640
:1017800000200978032906D019B1012901D00229C6
:1017900002D1022C01D3272010BDE0B2FFF7BEFF1B
:1017A0000028F9D17D4A116821F4C05141EAC421D1
:1017B00089B2116010BD00B5024601210720FFF774
:1017C0001AFF07205DF804EBF3E62DE9F0477249B4
:1017D000DFF8D0A14FF0000C0B7880F84930098970
:1017E000A0F84710DAF800104FF001090A0E950929
:1017F0000570C2F38305457002F0030282700A0C83
:10180000C2700A0A02714171DAF80420110E0C014B
:10181000C2F3074144EA111401F00F08C480C2F377
:10182000072180F80880CC094472C1F380148472C7
:10183000C1F34014C472C1F300140473544680F819
:101840000DC0A468260EC4F30745C4F3072733B1BF
:10185000012B04D0032B02D0022B32D043E08907A6
:10186000090DD2B241EA820141EA96120F30C6F365
:10187000C20140F8012CC17006F00701017169092D
:101880004171C5F382018171A9074B0F394643EAC3
:10189000D115C571521CAD1C09FA05F3A2FB035703
:1018A000DE170CFB037302FB063309FA08F2A5FBF3
:1018B0000267426303FB027205FB0C22C6620263ED
:1018C00010E09106890A41EA06220F302A4340F8C7
:1018D000012C521C530BD204C26203634FF40072FA
:1018E000394642630F38C1F3801200F8172F89067A
:1018F0004A0EE1B242EAD112427001F07F018170DA
:10190000DAF80C20110ECB09C370C1F34113037137
:10191000C1F38203437189070B0FC2F3074143EA06
:1019200091138371C1F34013C37180F808C001F0B3
:1019300001014172C2F30721CB098372C1F3801305
:10194000C372C1F340130373C1F300134373C1F3B4
:101950008103837301F00301C173C2F34601114A8D
:101960000174103280F8119011684B460C0E84748B
:10197000C1F30744C1F3072545EA0424A0F8134046
:101980000C0651680D0E44EA0544C1F3074544EACC
:101990000524C1F3072507E0CC050020042C0140F5
:1019A000382C0140609600202C43C0F81540417649
:1019B00091680C0E8476C1F30744C1F30725240611
:1019C00044EA0544C9B244EA0124D16844EA1164F6
:1019D000C0F81B40C47FC1F3074244EA1214C47725
:1019E000C1F30724120744EA12520284C1F34601EC
:1019F00080F8221080F823306046BDE8F08730B5CB
:101A00000020FA4D01464FF480122B1F0BE019689D
:101A100011F0450F07D00AB14A0707D529680320FE
:101A200041F004010BE0521EF1D2F5E7C90704D0E2
:101A30002968012041F00101296040F2FF5129602D
:101A400030BD30B50546E94B00201B1F1A6812F067
:101A5000450FFBD0E54B540705D5186840F004004E
:101A60001860032030BDD20705D0186840F001008F
:101A70001860012030BDDD4A283A1268AA4212D10E
:101A800040F2FF521A60D94A243A126812F4604FA9
:101A900003D0910405D5132030BD4FEA12420A80CD
:101AA00030BD510401D5102030BD1104FCD50F20EC
:101AB00030BDF8B50120ADF80000CC4838380068DA
:101AC000800725D0CA4C2078042856D00022032154
:101AD0000220FFF790FDFFF792FF002819D1C34DB8
:101AE000243D2968C3482E1D01603168371D4160BF
:101AF000396807F1040C8160DCF80010C1602078BF
:101B000040B1012806D0062804D0022802D00CE0FB
:101B10002520F8BD002201210320FFF76CFD694656
:101B20000320FFF78EFF0028F3D1207803280AD185
:101B3000BDF80000012102040320FFF75CFDFFF760
:101B40005EFF0028E5D12078042816D0BDF80000FB
:101B5000A060020403210920FFF74DFDFFF74FFFAE
:101B60000028D6D12968A348103801603168416047
:101B700039688160DCF80010C1600020F8BD9B4925
:101B8000091F086810F0450FFBD04107974805D59D
:101B9000016841F0040101600320704740F2FF51E9
:101BA00001600020704730B50020904D01464FF491
:101BB00080122B1F0BE0196811F0450F07D00AB1F6
:101BC0004A0707D52968032041F0040108E0521EA6
:101BD000F1D2F5E7490604D52968002041F040011B
:101BE000296030BD814A00204FF48011121F02E0AD
:101BF00013681B0602D4491EFAD200E021B17B4AC9
:101C000040F2FF5111607047032070472DE9F05FEB
:101C10000027764B3E46343B3C463D46B9461F6066
:101C200018681860186818601868186018681860D4
:101C300018681860F020FFF7B5FC6C494FF0030BF3
:101C40003839C1F800B0186840F48070186002207C
:101C500058F002FA002211461046FFF7CCFCFFF7BD
:101C6000C1FF28B17F1CFFB24A2FF3D3BDE8F09F1C
:101C70004FF4D57201210820FFF7BDFCFFF793FF59
:101C8000DFF86CA120B901218AF800104FF08049DB
:101C9000002201213720FFF7AEFC3720FFF789FC37
:101CA000DFF848814FF6FF7CA8F12408D0B1524EEE
:101CB000ADB337E0002201213720FFF79CFC37202D
:101CC000FFF777FC0028D1D13A4601212920FFF700
:101CD00092FCFFF754FF0028C8D1D8F80060F50F38
:101CE000641C02E0454949EA01070DB96445E1D3A6
:101CF000644519D216F0804FB8D002228AF800202D
:101D0000B4E7012132460846FFF775FCFFF737FFBD
:101D10000028ABD1D8F80010CD0F641CC8E7FFE74E
:101D20006445EED3644501D31B209FE78AF800B0D9
:101D30009CE770B53248016841F4006101600168B8
:101D400021F4006101602949002038390860091D2B
:101D50000860091D0860091D0860244914390860DD
:101D6000091D0860091D0860204A26491160111DDF
:101D70000860FFF74BFF1F4D040005F1100514D15B
:101D8000FFF797FE040010D12846FFF71EFD040060
:101D90000BD1B5F847000004FFF70DFD040004D196
:101DA0000120FFF7EAFC040003D011480078032863
:101DB00011D195F8490050B1012808D01020FFF743
:101DC000F1FB0020FFF7E4FB040002D003E0402019
:101DD000F5E706F076F9204670BD0448383801680A
:101DE00021F003010160002070470000382C014001
:101DF000CC050020709600200080FF80000010803D
:101E000024380240FF07C000FB4810B5016841F4C8
:101E100000610160016821F400610160FFF7DDFFEE
:101E2000F64900200122087088604A708870C870E6
:101E30000871F349887701F8020C888308614861CA
:101E40008861BDE8104006F043B930B5ED49002483
:101E50000B68DB07FCD1EB4B943B1D6845F4741514
:101E60001D60E84DE84B08352B602B1D18600020E5
:101E70002B1F186044EA821040F4553040F00A608D
:101E80000860E04A1432106840F0070010600868EB
:101E900040F020000860086840F00100086030BD94
:101EA0002DE9FF5FDFF860B3DDE90E87ABF1540B7E
:101EB0004FF0000A009D16464FF0FF34CBF800A00B
:101EC000DFF8389399F80000022804D1560A4FF43D
:101ED000007846EAC356424601211020FFF78BFBEB
:101EE0001020FFF766FB00284FD107FB08FC0123F9
:101EF000092261462046FFF78EFB012F32464FF044
:101F0000010104D91220FFF776FB122003E0112013
:101F1000FFF771FB1120FFF74CFB060035D199F854
:101F2000010018B14D46012864D095E006F02EF866
:101F3000B54AB54B4C3ADFF8D48240F22A3C0FE068
:101F4000000409D50020196845F82010401C082815
:101F5000F9D32035444603E0002C73D0A4F10104EA
:101F6000106810EA0C0F1068EAD0A94C000704D5DD
:101F7000206840F00800206064E01068800706D503
:101F8000206840F002002060022004B06EE6106875
:101F9000800605D5206840F0200020600620F4E788
:101FA0001068800507D5206840F400702060072085
:101FB000EBE7186801C510688002FAD41068C00504
:101FC00012D5012F10D999F8000018B1012801D0BD
:101FD000022809D1002201210C20FFF70CFB0C2064
:101FE000FFF7E7FA0600D0D105F0D2FF40F2FF502C
:101FF000206031E0504685F803A0012F02D901216D
:10200000A97000E0A87028718148001D016840F2A5
:102010002A3211430160DBF8001041F00801CBF8CF
:102020000010614600220098FFF70FFF75489C38AA
:1020300001E0A4F101040168890202D4002CF8D166
:1020400000E00CB90420A0E7287910B9E87800284E
:10205000FAD0E87800B1EE78304696E710B504463D
:1020600066480121008902040D20FFF7C4FA684A7E
:10207000121F116811F0450FFBD06548CA0705D043
:10208000016841F001010160012010BD490705D53B
:10209000016841F004010160032010BD5C4928394A
:1020A00009680D2901D0102010BD40F2FF510160D8
:1020B000574824380068C0F343202070002010BD2A
:1020C0002DE9F84F0400DDE90A874FF0000094463F
:1020D0008DF80000064607FB08F91FD04C490C3963
:1020E0000860DFF818A19AF80000022805D14FEA2D
:1020F000522C4FF400784CEAC35C42460121102078
:10210000FFF779FA1020FFF754FA002807D1012FC2
:102110002BD907FB08F0B0F1007F02D32620BDE8E1
:10212000F88F9AF8000018B1012801D0022815D1C3
:10213000BAF80800012102043720FFF75CFA3720C3
:10214000FFF737FA0028EAD13A4601211720FFF7B6
:1021500052FA1720FFF72DFA0028E0D1624601213C
:102160001920FFF748FA19202DE0BAF808000121DC
:1021700002040D20FFF73FFA0D20FFF71AFA00289E
:10218000CDD12349243908684FF0FF358B460EE046
:10219000BAF808006D1E020401210D20FFF72BFA8A
:1021A0000D20FFF706FA0028B9D1DBF80000C005C2
:1021B00002D4002DECD12DE0EDB1624601211820B2
:1021C000FFF719FA1820FFF7F4F90028A7D14FF00C
:1021D000FF3B07FB08FC0023092261465D46584689
:1021E000FFF719FA9AF80100DFF82480A0B15646EB
:1021F00001287DD0C4E00DE024380240CC05002049
:10220000AB960020A0640240802C0140FFFF7F00BD
:10221000382C0140292082E705F0B8FED74AD7497B
:102220004C3A40F21A3325E040041FD5A9EB0600D2
:1022300020280FD285074FEA900500D06D1C0020A2
:1022400005E054F804CBC1F800C0401C361DA8427C
:10225000F7D308E0002054F820500D60401C0828F7
:10226000F9D3203420366FF0404503E0002D0DD027
:10227000A5F10105106818421068D5D0000706D5F1
:10228000D8F8001041F00801C8F8001076E0106896
:10229000800707D5D8F8001041F00201C8F80010F7
:1022A00002203CE71068C00607D5D8F8001041F0BE
:1022B0001001C8F80010052031E71068800507D527
:1022C000D8F8001041F40071C8F80010072026E784
:1022D0001068C00514D5012F12D99AF8000018B162
:1022E000012801D002280BD1002201210C2000E09E
:1022F0000DE0FFF780F90C20FFF75BF900288AD189
:1023000005F046FE40F2FF50C8F8000038E000201B
:10231000F070012F02D90121B17000E0B07030716E
:10232000964A443A116840F21A30014311606146FE
:1023300001222046FFF789FD90485438016841F09A
:10234000080101608E4801E0A5F1010501688902DC
:1023500002D4002DF8D102E00DB1584603E0FFF79A
:10236000E8FC0BE0401E317909B9F17821B128B1C0
:10237000F07828B1F078D2E60028F3D10420CEE638
:1023800040F2FF50C8F800006846FFF767FE0028DB
:1023900087D19DF800100729F6D00629F4D0BEE6B3
:1023A000F0B576484C38016800F10404754FC90552
:1023B00004F104054CF23A3618D5B87801280CD04F
:1023C0000020F870206840F4807020602868B043D6
:1023D000286001203871F878F0BD002201210C201E
:1023E000FFF709F90C20FFF7E4F8EAE7016889072D
:1023F00009D5206840F0020020602868B0432860BA
:102400000220F870F0BD0168090709D5206840F086
:10241000080020602868B04328600420F870F0BDF0
:102420000168890609D5206840F0200020602868EE
:10243000B04328600620F870F0BD0168C90609D5D0
:10244000206840F0100020602868B0432860052014
:10245000F870F0BD0068800509D5206840F4007070
:1024600020602868B04328600720F870F0BD002085
:10247000F0BD95E710B5040010D042480121008955
:1024800002040D20FFF7B7F80D20FFF792F800289F
:1024900003D13A496C390968216010BD262010BD6E
:1024A00008B5002000906846FFF7E4FF08B1FF2060
:1024B00008BD0098C0F3432008BD2DE9FC5F054628
:1024C000CE0D4F0292464FF000084046AA074FF447
:1024D000007119D000248346894612E00120CDE91D
:1024E00000906002C2194BEB06032748FFF7D8FCA7
:1024F00080464A462449284655F004FD05F50075F6
:10250000641C5445EAD307E0CDE9001A3A46334645
:102510002846FFF7C5FC80464046BDE8FC9F2DE9F4
:10252000FC5F05460020CE0D4F0290460246AB07E9
:102530004FF4007119D00024924689464FF0010BE8
:1025400010E04A462946104855F0DCFC6002C219EA
:10255000CDE9009B4AEB06030B48FFF7B1FD05F5FB
:102560000075641C4445ECD3D7E7CDE900183A4622
:1025700033462846FFF7A4FDCFE735E4802C014021
:1025800004640240CC050020CC960020FA490628BD
:10259000087001D9072001E0401CC0B2072141EAC0
:1025A000C00040F44071F548018000218180018124
:1025B0004FF6FF7202828183018841F04001018061
:1025C000704710B5072800D90720072141EAC0004D
:1025D00040F44071EA4801800321021D118000216E
:1025E000121D1180E64B4FF6FF7210331A80E44A39
:1025F0001C321180028842F040020280E1480165ED
:10260000026842F0746202601B1F8365DA4A521C42
:10261000C265026641654166041504658166046809
:1026200044F074640460036742678267C166C167EF
:102630004FF48861816610BD10B5072800D90720C6
:10264000072141EAC00040F44071CF4801800321D6
:10265000021D11800021121D1180CB4B4FF6FF721D
:1026600010331A80C84A1C321180028842F040029E
:102670000280C44808380164826842F4741282609F
:102680001B1F8364BC4A521CC264026541644165DD
:102690000164C0F8B810C46844F07464C460C0F841
:1026A000C030C0F8C420C0F8C820C0F8BC10C0F8C2
:1026B000CC104FF48861C0F8B81010BDFF2812D0BC
:1026C00000F00700072800D2401CAC490A8822F01D
:1026D00038020A800A8842EAC0000880088840F070
:1026E0004000088070470020EFE700F00701A44891
:1026F000028822F038020280028842EAC101018089
:10270000018841F040010180704700F007019E48B8
:10271000028822F038020280028842EAC101018068
:10272000018841F0400101807047944801890021EF
:10273000018170479248083001880021018070476C
:102740008F480830018800210180704710B58B4CFC
:1027500021898907FCD5A081C6F0B6F92089C00778
:10276000FCD0A089C0B210BD70B5854C083421885A
:102770008907FCD5824D0C352880C6F0A5F9208844
:10278000C007FCD02888C0B270BD70B57E4C08343C
:1027900021888907FCD57C4D0C352880C6F094F93A
:1027A0002088C007FCD02888C0B270BD774A10B519
:1027B000136823F0010313601368DB07FCD1734B2C
:1027C000383B1C6844F474141C606C4B6F4C0C3325
:1027D00008342360231D18601B1D1860201F016032
:1027E0000020191D08606A481060106840F0010060
:1027F000106010BD65490A6822F001020A600A688B
:10280000D207FCD1614A383A136843F47413136059
:102810005A4A5E4B0C3208331A60574A521C1B1D31
:102820001A601B1D1A60594A121D106000201A1DE3
:1028300010604FF0C0600860086840F00100086058
:102840007047524A10B51832136823F00103136021
:102850001368DB07FCD14D4B383B1C6844F07464B3
:102860001C60464B494C0C3320342360231D1860F8
:102870001B1D1860201F01600020191D08604448BE
:1028800040301060106840F00100106010BD3D4AFB
:10289000083A936D23F001039365936DDB07FCD138
:1028A000936843F074639360354B0C331366506642
:1028B0009066D1650020D0664FF482609065906D7F
:1028C00040F00100906570472E4908398A6D22F06A
:1028D00001028A658A6DD207FCD18A6842F074626F
:1028E0008A60274A0C320A66234A521C4A668A6664
:1028F000C8650020C8668865886D40F0010088655D
:102900007047204A083A136F23F001031367136FCF
:10291000DB07FCD152F80C3F43F03D031360184B2A
:102920000C33D366106750679166002090674FF4B0
:1029300088605066506E40F0010050667047114A42
:10294000083A136C23F001031364136CDB07FCD10A
:10295000936843F4741393600B4B0C339364D0640B
:10296000106551640020506518151064106C40F01B
:102970000100106470470000D805002000300140BD
:102980000038004008600240003C004040640240C3
:10299000000400061C490A6C22F001020A640A6C59
:1029A000D207FCD18A6842F474128A60174A8A649A
:1029B000174ACA640A654864002048651020086404
:1029C000086C40F001000864D4E70F4AB83213687D
:1029D00023F0010342F8B839D2F8B830DB07FBD155
:1029E000D36843F07463D3605032084B1367506769
:1029F0009067D1660020D0674FF488609066906E33
:102A000040F001009066B5E7006002400C3C0040D9
:102A1000D905002070B500220346012903D0022900
:102A200003D0032903D0052002E0352000E0152063
:102A300023B1012B0ED0022B19D023E0FE49102424
:102A40000C80FFF783FEFF20FFF780FE0246FA4866
:102A5000801E0AE0F94901240C80FFF777FEFF2071
:102A6000FFF774FE0246F548801E04800AE0F44C2D
:102A70004FF400456583FFF769FEFF20FFF766FE10
:102A800002462583104670BD2DE9F041002420B197
:102A900001281ED0022839D053E0E74810260680CE
:102AA0009020FFF753FE0020FFF750FE0020FFF7B5
:102AB0004DFE0020FFF74AFEFF20FFF747FE44EAE5
:102AC0000025FF20FFF742FE40EA0504DA48801E99
:102AD0001AE0DA48012606809020FFF737FE002032
:102AE000FFF734FE0020FFF731FE0020FFF72EFE37
:102AF000FF20FFF72BFE44EA0025FF20FFF726FE0C
:102B000040EA0504CD48801E06801AE0CC4F4FF401
:102B100000467E839020FFF719FE0020FFF716FE87
:102B20000020FFF713FE0020FFF710FEFF20FFF745
:102B30000DFE44EA0025FF20FFF708FE40EA0504E9
:102B40003E832046BDE8F0812DE9F05FDFF8E89292
:102B50001027A9F10209A9F80070B84E0125B61E88
:102B60003580DFF8DCB24FF4004AABF818A0022041
:102B700030800020FFF788FFB24C4EF618784045B1
:102B800020800CD103210020FFF744FFC00706D1AD
:102B9000A9480780B720FFF7D9FDA9F800700120E8
:102BA000FFF772FF47466080B8420BD10321012036
:102BB000FFF730FFC00705D1A0480580B720FFF719
:102BC000C5FD35800220FFF75FFFA080B8420DD120
:102BD00003210220FFF71EFFC00707D155465C46C0
:102BE000ABF81AA0B720FFF7B1FD2583BDE8F09F31
:102BF000F0B54EF61772531C141FD51E961EDFF843
:102C000044C2571E20B1012814D0022817D01DE05D
:102C10008C48002900880CD0904215D0984213D0DF
:102C2000A04205D0A84203D0B04201D0B8420DD195
:102C30000220F0BDBCF802000029FAD0ECE7BCF895
:102C400004000029F5D0E7E70120F0BD0020F0BD29
:102C500070B514460346012903D0022903D0032985
:102C600003D0012002E0312000E011206BB1012BE4
:102C700016D0022B08D1724E9D037583FFF766FDB7
:102C80002046FFF763FD358370BD6B4910250D802D
:102C9000FFF75CFD2046FFF759FD6748801E09E0FD
:102CA000664901250D80FFF751FD2046FFF74EFDD7
:102CB0006248801E058070BD70B558B1012812D0E1
:102CC000022806D15E4C850365830620FFF73EFD92
:102CD000258370BD5848102404800620FFF736FD78
:102CE0005548801E07E05548012404800620FFF760
:102CF0002DFD5248801E048070BD70B558B101286A
:102D000012D0022806D14E4C850365830420FFF7BC
:102D10001DFD258370BD4848102404800420FFF762
:102D200015FD4548801E07E0444801240480042026
:102D3000FFF70CFD4148801E048070BD10B50446AD
:102D400001E0C5F0C1FE01212046FFF763FEC00788
:102D5000F7D110BD2DE9F84F0D46DFF8ECA04FEA92
:102D600012611C4616465FEA0009C2F30748C2F327
:102D70000727009137D0B9F1010F69D0B9F1020FDF
:102D800067D1FFF799FF2E494FF400404883022096
:102D9000FFF7DCFC2B488188A1F56F40183802D181
:102DA0000098FFF7D3FC4046FFF7D0FC3846FFF70A
:102DB000CDFCF0B2FFF7CAFCBAF800805746BAF86B
:102DC000000020F07800AAF800000320AAF8040010
:102DD000BAF8000040F04000AAF800004FF0FF3BB6
:102DE000DFF868A0DAE0FFF767FF134910200880DA
:102DF0000220FFF7ABFC13480188A1F56F4018389B
:102E000002D10098FFF7A2FC4046FFF79FFC38462E
:102E1000FFF79CFCF0B2FFF799FCBAF80080574628
:102E2000BAF8000020F07800AAF800000320AAF801
:102E30000400BAF800000DE01A1C02401A04024017
:102E400000000240DA05002000300140006402402A
:102E500030E0B5E040F04000AAF800004FF0FF3A43
:102E6000DFF844B419E0B4F5803F02D34FF6FF76A3
:102E700000E0A6B23046FFF7BDFC31462846FFF71A
:102E8000E0FC5046594601E0A0F101000A689202B8
:102E900001D40028F8D13544A41B002CE3D1388894
:102EA00020F0780038800020B880A7F8008010203B
:102EB000FE4957E0FFF700FFFD490120088002208E
:102EC000FFF744FCFB484188A1F56F40183802D158
:102ED0000098FFF73BFC4046FFF738FC3846FFF709
:102EE00035FCF0B2FFF732FCBAF800805746BAF86A
:102EF000000020F07800AAF800000320AAF80400DF
:102F0000BAF8000040F04000AAF800004FF0FF3B84
:102F1000DFF894A319E0B4F5803F02D34FF6FF76B3
:102F200000E0A6B23046FFF765FC31462846FFF7C1
:102F300088FC5846514601E0A0F101000A6892025F
:102F400001D40028F8D13544A41B002CE3D13888E3
:102F500020F0780038800020B880A7F80080D4499D
:102F60000120891E088027E0B4F5803F02D34FF688
:102F7000FF7600E0A6B23046FFF73CFC314628461B
:102F8000FFF75FFC5846514601E0A0F101000A68D6
:102F9000920201D40028F8D13544A41B002CE3D1BF
:102FA000388820F0780038800020B880A7F80080AA
:102FB000C1494FF4004008834846BDE8F84FBDE6DC
:102FC000BDE8F88F2DE9F0478146D0B2C0F5807496
:102FD0001D4616460F46A34200D8ACB24FF4807887
:102FE0002346324639464846FFF7B4FEA54207D08D
:102FF000274426442D1B4446A542F1D8ACB2EFE746
:10300000BDE8F08770B50446FFF756FE2046FFF78F
:1030100095FE24B1012C0BD0022C13D01AE0A3484A
:103020001025801C0580C720FFF790FB9F4807E014
:103030009F4801250580C720FFF788FB9C48801E1C
:10304000058007E09C4D4FF400466E83C720FFF7D4
:103050007DFB2E832046BDE870406FE62DE9F047EA
:1030600005460C03FFF728FE2846FFF767FE914E42
:103070004EF6187725B1012D1FD0022D3BD056E01A
:103080008A494FF01008891CA1F800802020FFF722
:103090005DFB3088B84202D1200EFFF757FBC4F326
:1030A0000740FFF753FBC4F30720FFF74FFBE0B2E5
:1030B000FFF74CFB40467D491BE07D494FF001087E
:1030C000A1F800802020FFF741FB7088B84202D1B0
:1030D000200EFFF73BFBC4F30740FFF737FBC4F3B9
:1030E0000720FFF733FBE0B2FFF730FB70494046A3
:1030F000891E08801BE0DFF8C0914FF40048A9F852
:103100001A802020FFF722FBB088B84202D1200E9F
:10311000FFF71CFBC4F30740FFF718FBC4F30720BD
:10312000FFF714FBE0B2FFF711FBA9F8188028465F
:10313000BDE8F04702E62DE9F0470546CC03FFF76E
:10314000BBFD2846FFF7FAFD5A4E4EF6187725B11B
:10315000012D1FD0022D3BD056E054494FF01008EE
:10316000891CA1F800805220FFF7F0FA3088B8429D
:1031700002D1200EFFF7EAFAC4F30740FFF7E6FAA0
:10318000C4F30720FFF7E2FAE0B2FFF7DFFA4046A8
:1031900046491BE046494FF00108A1F80080522043
:1031A000FFF7D4FA7088B84202D1200EFFF7CEFAAA
:1031B000C4F30740FFF7CAFAC4F30720FFF7C6FAC3
:1031C000E0B2FFF7C3FA3A494046891E08801BE087
:1031D000DFF8E4904FF40048A9F81A805220FFF776
:1031E000B5FAB088B84202D1200EFFF7AFFAC4F3A7
:1031F0000740FFF7ABFAC4F30720FFF7A7FAE0B2E6
:10320000FFF7A4FAA9F818802846BDE8F04795E52D
:103210002DE9F04705460C04FFF74EFD2846FFF761
:103220008DFD244E4EF6187725B1012D1FD0022DAD
:1032300046D061E01D494FF01008891CA1F80080BC
:10324000D820FFF783FA3088B84202D1200EFFF76A
:103250007DFAC4F30740FFF779FAC4F30720FFF7BC
:1032600075FAE0B2FFF772FA404610491BE01049C8
:103270004FF00108A1F80080D820FFF767FA7088A6
:10328000B84202D1200EFFF761FAC4F30740FFF7FE
:103290005DFAC4F30720FFF759FAE0B2FFF756FAD8
:1032A00003494046891E09E000640240181C0240A0
:1032B0001A040240DA0500200000024008801BE0EA
:1032C000DFF844944FF40048A9F81A80D820FFF79B
:1032D0003DFAB088B84202D1200EFFF737FAC4F3A6
:1032E0000740FFF733FAC4F30720FFF72FFAE0B2E5
:1032F000FFF72CFAA9F818802846BDE8F0471DE52D
:1033000070B520B101280BD0022813D01AE0FF4875
:1033100010240480B920FFF719FAFC48801E07E04A
:10332000FB4801240480B920FFF710FAF848801EFA
:10333000048007E0F44C4FF400456583B920FFF7A3
:1033400005FA2583BDE87040032056F093BE70B5A2
:1033500020B101280BD0022813D01AE0EB4810242A
:103360000480AB20FFF7F2F9E848801E07E0E84848
:1033700001240480AB20FFF7E9F9E548801E0480B2
:1033800007E0E14C4FF400456583AB20FFF7DEF921
:103390002583BDE87040032056F06CBE2DE9F84F40
:1033A0000D468146D9491020891E1C4616460880C4
:1033B000D7480121801E0180D34AC903118302210D
:1033C0000180C5F081FB310EDFF848A3C6F3074842
:1033D000C6F307274FF6FF7B0091B9F1000F06D027
:1033E000B9F1010F5CD0B9F1020F7DD011E1C749ED
:1033F0004FF01009A1F800900320FFF7A7F9C64885
:103400000188A1F56F40183802D10098FFF79EF9A6
:103410004046FFF79BF93846FFF798F9F0B2FFF7FF
:1034200095F9BAF800805746BAF8000020F0780005
:10343000AAF800000320AAF80400BAF8000040F03F
:103440004800AAF800004FF0FF3A1BE0B4F5803FB7
:1034500001D35E4600E0A6B231462846FFF7A6F942
:1034600031462846FFF7EDF95046AC4901E0A0F19E
:1034700001000A68920201D40028F8D13544A41B47
:10348000C5F022FB002CE1D1388820F0780038808C
:103490000020B880A7F800809C494846891E59E062
:1034A0009B494FF00109A1F800900320FFF74EF966
:1034B00099484188A1F56F40183802D10098FFF76C
:1034C00045F94046FFF742F93846FFF73FF9F0B2B9
:1034D000FFF73CF9BAF800805746BAF8000020F030
:1034E0007800AAF8000000E036E00320AAF8040003
:1034F000BAF8000040F04800AAF800004FF0FF3A88
:103500001BE0B4F5803F01D35E4600E0A6B2314631
:103510002846FFF74BF931462846FFF792F9504607
:103520007E4901E0A0F101000A68920201D400285E
:10353000F8D13544A41BC5F0C7FA002CE1D1388876
:1035400020F0780038800020B880A7F8008070490B
:103550004846891E08805CE0DFF8AC914FF40040DB
:10356000A9F81A000320FFF7F1F86B488188A1F54C
:103570006F40183802D10098FFF7E8F84046FFF78F
:10358000E5F83846FFF7E2F8F0B2FFF7DFF8BAF8EF
:1035900000805746BAF8000020F07800AAF8000032
:1035A0000320AAF80400BAF8000040F04800AAF886
:1035B00000004FF0FF3BDFF864A11CE0B4F5803F52
:1035C00002D34FF6FF7600E0A6B231462846FFF759
:1035D000EDF831462846FFF734F95846514601E0E8
:1035E000A0F101000A68920201D40028F8D1354404
:1035F000A41BC5F069FA002CE0D1388820F07800CF
:1036000038800020B880A7F800804FF40040A9F867
:103610001800BDE8F84FC5F057BA30B5002301E0F7
:103620005B1C9BB2C45CCD5CAC4201D19342F7D32E
:10363000934201D1012030BD002030BD2DE9FF4F64
:103640008946324900251020891E81B01F46088016
:103650002F480121801E01802B4AC90311830221BA
:103660000180DFF8BC8008F5805000900398C0F31B
:103670000B06C6F580544FEA103AA74200D81C4604
:103680004FEA0A3293464FF4805341460198FFF7C0
:1036900085FE0020014609E0331819F8002018F8CB
:1036A0000330934201D0012109E0401CA042F3D332
:1036B00005E0331818F80320FF2A02D1401CA0426D
:1036C000F7D3A04233D251460198FFF7C7FC002040
:1036D00005E019F800208319401C08F80320A042D7
:1036E000F7D35A464FF4805341460198FFF76AFCDE
:1036F000DDE900105A464FF48053FFF74FFE4FF4B8
:1037000080524046009922E0000002401A1C02400C
:103710001A04024000300140DA0500200064024033
:10372000CC980020052D16D26D1CEDB2A8E799B1FA
:1037300023464946039A0198FFF744FCDDE900104F
:103740002346039AFFF72AFEA2B248460099FFF7E4
:1037500064FF0028E6D00025A7420DD00398A144BD
:1037600020443F1B00264FF480540AF1010A0390C5
:10377000A74285D83C4683E705B0BDE8F08F120329
:103780004FF480530AE62DE9F047894615498246F1
:103790000024102016460880134801210180134A96
:1037A000C903118302210180114F4FEA06388514A5
:1037B00031465046FFF752FC2B464246494650469A
:1037C000FFF700FC2B46424639465046FFF7E6FD20
:1037D0002A4639464846FFF720FF002801D1032C2E
:1037E000E6D30DE4181C0240180402400000024019
:1037F000CCA8002070472DE9F041074616460D463B
:103800000024FF20FEF7A2FFF9490220088047F0BC
:103810004000FEF79BFF280EFEF798FFC5F3074018
:10382000FEF794FFC5F30720FEF790FFE8B2FEF71E
:103830008DFF3046FEF78AFF4FF4487503E0641CA5
:10384000A4B2AC4204D8FF20FEF780FFFF28F6D0D8
:10385000BDE8F0812DE9F041074690460D46002471
:10386000FF20FEF773FFE2480226068047F0400083
:10387000FEF76CFF280EFEF769FFC5F30740FEF761
:1038800065FFC5F30720FEF761FFE8B2FEF75EFFB4
:103890004046FEF75BFF4FF4487503E0641CA4B29A
:1038A000AC4205D8FF20FEF751FF0746FF28F5D0B0
:1038B000CF48801E0680FF20FEF748FF3846C7E746
:1038C0002DE9F05F0A2056F0C7FBCA480068800562
:1038D00002D50020BDE8F09F0620FEF7EFFE002491
:1038E000FF20FEF733FF641CA4B20A2CF8D3DFF8E4
:1038F00008830021C8F800100C46002195220846D4
:10390000FFF7A8FF641C012801D0C82CF5D3BB4DDC
:10391000642C41D087224FF4D5710820FFF76BFF4C
:10392000DFF8CCA2B64E0446AAF1020A4FF0020B11
:10393000052802D0012C46D09BE001213170B14610
:10394000AAF800B0FF20FEF701FF00244FF4C8766C
:10395000002211463720FFF77DFF0746012804D0DB
:103960002878FEF7ABFE3846B4E70022114629203E
:10397000FFF770FF641C08B1B442E9D3B44213D11D
:103980000024002211460120FFF764FF641C08B1E7
:10399000B442F6D3B44204D12878FEF78FFE01205A
:1039A00098E7002089F800002878FEF787FEFF20BE
:1039B000FEF7CCFEFF224FF400711020FFF74AFF04
:1039C000040056D14DE0FF20FEF7C0FEFF20FEF7B9
:1039D000BDFEFF20FEF7BAFE8146FF20FEF7B6FED1
:1039E0000746AAF800B0FF20FEF7B0FEB9F1010FBC
:1039F0003FD1AA2F3DD100274FF080490022114628
:103A00003720FFF727FF0446012832D1002249461C
:103A10002920FFF71FFF0446C82F2AD80028EDD120
:103A2000002211463A20FFF7E6FE040021D1FF20D4
:103A3000FEF78CFE0746FF20FEF788FEFF20FEF70C
:103A400085FEFF20FEF782FED946AAF800B0FF20CF
:103A5000FEF77CFE780602D50420307001E086F87F
:103A600000906849402048832320C8F8000004F0F3
:103A700033FB2878FEF722FE20462BE770B50024A2
:103A80004FF6FE75FF20FEF761FE641CA4B2AC4247
:103A900001D1012070BDFF28F4D1002070BD2DE9B7
:103AA000F05F054652480227934688460780002467
:103AB000A0F102094FF4FA5AFF20FEF747FE641CFA
:103AC000A4B2544503D9A9F80070012002E7FE28EA
:103AD000F2D1B8F1000F16D04B49FF238B81088932
:103AE000C007FCD0A8F101081FFA88F007E08B811D
:103AF00005F8016B0A89D207FCD0401E80B28A8982
:103B00000028D6B2F3D12E70FF20FEF71FFEFF2053
:103B1000FEF71CFEBBF1010F04D1A9F80070FF20D5
:103B2000FEF714FE0020D5E610B50446FF22002162
:103B30000A20FFF78FFE002805D101221021204620
:103B4000FFF7ADFF002010BD10B50446FF22002195
:103B50000920FFF77FFE002805D101221021204611
:103B6000FFF79DFF002010BD7FB56846FFF7ECFF13
:103B700018B10020014604B070BD9DF8001001206E
:103B80000023B0EB911F09D19DF808209DF8091082
:103B900000EB02200844810D8002ECE79DF806004E
:103BA0004FF6FF7400F003009DF8071004EA0020B0
:103BB00008449DF8081004EA800000EB91129DF87B
:103BC00009009DF80A108007400F00EBD110801CFF
:103BD000012103E0401E04EA4101C0B20028F9D1EE
:103BE000521C9DF805004A4300F00F00012111E02E
:103BF0001A040240DC030020F4030020D805002052
:103C0000E00500200010024000300140401E04EAA0
:103C1000410180B20028F9D11D46A2FB010305FB3A
:103C2000013102FB0511A6E710B50C467A49097867
:103C3000042900D04002014600221120FFF70AFEAD
:103C4000002805D120460122BDE81040510226E798
:103C500010BD2DE9F0410C466F490978042900D0C8
:103C60004002014600221820FFF7F4FD00282ED163
:103C70006A4E02253580FF20FEF768FDFF20FEF723
:103C800065FDFF20FEF762FDFE20FEF75FFD644943
:103C900000204B150A899207FCD514F8012B8A8164
:103CA0000A89D207FCD08A89401C9842F2D3FF20AF
:103CB000FEF74CFDFF20FEF749FDFF20FEF746FD15
:103CC00000F01F01052903D05449891E0D80BFE56E
:103CD0000024544F05E0641CBC4202D93580012009
:103CE000B6E5FF20FEF732FD0028F4D03580FF2036
:103CF000FEF72CFD0020ABE570B50D464649144695
:103D00000978042900D04002014600221220FFF762
:103D1000A1FD00281AD14FF4007600223146284632
:103D2000FFF7BDFE28B9641E05F5007514F0FF0409
:103D3000F3D1002211460C20FFF78CFD37490220F9
:103D4000891E0880FF20FEF701FD204670BD2DE989
:103D5000F0470646304815460C460078042801D046
:103D6000760220B1002229461720FFF773FD0022BA
:103D700031461920FFF76EFD00282FD12748022673
:103D80000680FF20FEF7E2FCFF20FEF7DFFC234F5A
:103D9000DFF88C80BF1E4FF40079FC20FEF7D6FCC4
:103DA000002041464B460A899207FCD514F8012BA6
:103DB0008A810A89D207FCD08A89401C9842F2D3B2
:103DC000FF20FEF7C3FCFF20FEF7C0FCFF20FEF73C
:103DD000BDFC00F01F01052902D03E80BDE8F08740
:103DE000FFF74CFE012808D06D1E15F0FF05D4D159
:103DF000FD20FEF7ABFC18B103E03E800120EDE7AB
:103E0000FE25FFF73BFE00B1FEE73E80FF20FEF7F8
:103E10009DFC2846E2E70000E00500201A0402406D
:103E200000300140FEFFFF00401EFDD2704770B51C
:103E30000646FF4880250C460580642056F01AF996
:103E40000220FEF7A2FC3046FEF79FFC200AFEF798
:103E50009CFCE0B2FEF799FCF548801E058070BD21
:103E600070B5F349802504460D800320FEF78DFCD4
:103E70002046FEF78AFCFF20FEF787FC4FF6FF7115
:103E800001EA0024FF20FEF780FCE9492043891E57
:103E90000D8070BD70B5002440F6044506E000209A
:103EA000FFF7C5FF2046641C052805D80020FFF752
:103EB000D7FF29468842F2D1022056F0CDF84FF4C0
:103EC0008010DC4901E0A0F101000A68520404D42A
:103ED0000028F8D101E0A0F101000A68520402D4E0
:103EE0000028F8D100E008B900F02EF84FF4805017
:103EF000401EFDD270BD70B54FF48014CD48251220
:103F00000A3005800A2056F0A7F8C9498020891E8A
:103F100008808101C748083001800580C54801E05C
:103F2000A4F101040168490404D4002CF8D101E093
:103F3000A4F101040168490401D4002CF8D1BDE8C2
:103F400070400A2056F088B82DE9F041BA480024A4
:103F5000047044704FF48070401EFDD2FFF7CBFF19
:103F6000FFF798FF052056F077F8B44D28882E1FEC
:103F700040B1308820F0400030802C80308840F004
:103F80004000308000244FF4406707E00020FFF736
:103F90004EFF2046641CE4B20A2805D80020FFF733
:103FA0005FFF39468842F1D100244FF4184707E0FB
:103FB0000320FFF73CFF2046641CE4B20A2805D822
:103FC0000320FFF74DFF39468842F1D100244AF61D
:103FD000454707E00520FFF72AFF2046641CE4B2AE
:103FE0000A2805D80520FFF73BFF39468842F1D162
:103FF000002408E0A5210220FFF719FF2046641CD9
:10400000E4B20A2804D80220FFF72AFFA528F1D13C
:10401000002440F6080707E00B20FFF708FF2046C2
:10402000641CE4B20A2805D80B20FFF719FF3946B3
:104030008842F1D10320FEF768FB2888032809D0C5
:10404000308820F04000308003202880308840F005
:10405000400030800A2C02D90020BDE8F081012008
:10406000FBE72DE9F0414FF442610020FFF7DFFE4E
:10407000704801684904FCD501684904FCD5016811
:104080004904FCD56B4D4FF400540A352C80532065
:10409000FEF77BFBEF20FEF778FB6E20FEF775FB4B
:1040A0002420FEF772FB0020FEF76FFB0020FEF7D6
:1040B0006CFB0020FEF769FB0020FEF766FB4FF467
:1040C000FA77384655F0C8FFAE1E34802C80452064
:1040D000FEF75BFB7820FEF758FB6920FEF755FBE7
:1040E0007420FEF752FB0020FEF74FFB0020FEF786
:1040F0004CFB0020FEF749FB0020FEF746FB38464C
:1041000055F0AAFF34802C805320FEF73EFBEF20B1
:10411000FEF73BFB6E20FEF738FB4420FEF735FB35
:104120000020FEF732FB0020FEF72FFB0020FEF7F9
:104130002CFB0020FEF729FB384655F08DFF34801C
:104140002C804520FEF721FB7820FEF71EFB69201E
:10415000FEF71BFB7420FEF718FB0020FEF715FB93
:104160000020FEF712FB0020FEF70FFB0020FEF7F9
:104170000CFB384655F070FF34806EE770B52D4962
:104180004FF400540A318D1E0C8050B15320FEF7BD
:10419000FCFAEF20FEF7F9FA6E20FEF7F6FA24207B
:1041A00009E04520FEF7F1FA7820FEF7EEFA6920E3
:1041B000FEF7EBFA7420FEF7E8FA0020FEF7E5FAC6
:1041C0000020FEF7E2FA0020FEF7DFFA0020FEF7FB
:1041D000DCFA2C8070BD70B5174D6878012825D1A8
:1041E00014480168490402D4016849041ED50168D5
:1041F000490402D40068400418D5A868B8B1642006
:1042000055F038FFA868202801D9202401E0A868CB
:10421000C4B22046FEF7BEFB21466868FEF7D5FB18
:10422000686820446860A868001BA86070BD07E04B
:104230001A04024010180240E4050020043C00402B
:1042400000206870F2E710B50446FFF723FE8849A6
:10425000864AC1E901240020087001204870BDE8A9
:104260001040B8E770B5824D824C68780028DDD0E8
:104270000020A86002E0C4F027FC641E687808B142
:10428000002CF8D1BDE8704004E6CFE778484078CC
:104290007047794910B5086810F4741F2ED04FF498
:1042A000741088608001C860714B5878012825D14E
:1042B00072480268520402D4026852041ED5026891
:1042C000520402D40068400418D59868B8B19868C0
:1042D000202801D9202001E09868C0B24031486010
:1042E000C8675A68C1F8842011240C6040F2414428
:1042F0008C67111859609968081A986010BD0020E1
:10430000587010BD70B586B014460D46A02829D14E
:104310000A23002202A90120FFF740F800268DF8A9
:10432000126057A102A853F0D9FE00281AD1BCB1DF
:10433000B4F5D47F10D8022D0ED24FF496504543D9
:1043400005EBC40418340423224669460120FFF714
:1043500025F80423221D11E0012C01D1022D03D0E8
:104360000096019606B061E742F2A0520423694626
:104370000120FFF713F8042342F2A45201A90120FF
:10438000FFF70CF801980028ECD00098B0F5205FFA
:10439000E8D3B0F1807FE5D2FFF764FFDDE90023C9
:1043A00032490120FEF7FAFF0198FFF74CFFD9E7E9
:1043B000F0B5ABB06421684653F03DFE0020ADF887
:1043C00064003248CDF8A20040F2FF10CDF8A600FC
:1043D000264C2FA1684653F089FD69461AA841F082
:1043E00047FD002826D12BA1684653F07FFD01220E
:1043F00069462A4841F0CAF908B1082829D1284E4F
:1044000000254FF4007727483FF076FB08B319AB3F
:104410003A462349214841F056FABDF8641001B1EB
:1044200070B1B5B11D4841F0E4FBFFF71BFF284612
:10443000FFF709FF2BB0F0BD315C04F8011B401CF5
:10444000BDF864108842F7D388B20544C4F03CFB41
:10445000D9E7124841F0CDFBECE7054AC2E901017A
:104460000020107001205070B5E60000000040C030
:10447000E4050020FFFF0F0000600240101802401A
:10448000475A534B5F4D50335F560000CCB8002065
:10449000303A2F00312E6D7033000000E0DD002037
:1044A00004DE002004E0002030B589B0044620225C
:1044B000FE49684653F06BFD0021FD4D684607E05C
:1044C000072907D00C2905D0102903D0162901D0BF
:1044D000425C6A54491CC9B22029F1D3C4F0F4FAF1
:1044E0000020215C81F055012154401CC0B21E28DF
:1044F000F7D3002107E007290CD00C290AD0102996
:1045000008D0162906D0605C6A5C904202D0002078
:1045100009B030BD491CC9B21E29ECD30120F7E710
:1045200030B5E24989B0044620222031684653F074
:104530002EFD0021DE4D684607E0072907D00C2933
:1045400005D0102903D0162901D0425C6A54491CB9
:10455000C9B22029F1D3C4F0B7FA0020295C215454
:10456000401CC0B21E28F9D30020215C81F0550107
:104570002154401CC0B21E28F7D3227801201146D6
:10458000235C401C1A445940C0B2D2B21E28F7D353
:10459000A277E177BCE72DE9F14FB0B04FF0000909
:1045A0004FF42050CDF8BC902590ADF8B090182273
:1045B000C0A126A853F0EBFC002505E025B1012D94
:1045C00008D0022D08D00AE0C0483FF095FA002834
:1045D00073D004E0026800E00A68232A6ED1C4F0B8
:1045E00073FA00202D9000248DF80C4010B10128A2
:1045F00006D00BE0B6A103A853F078FC0A2004E033
:10460000B6A103A853F072FC12208146012D02D0FE
:10461000022D02D004E0312000E032208DF80C00A1
:1046200003A91CA841F024FC00287DD103AE312150
:1046300006F8091031461CA841F01AFC0028F4D1F4
:104640004FF0330806F8098003A91CA841F010FCBC
:104650000028EAD106EB09072F227A702E20787104
:104660006D20B8717020F871332038720020787294
:10467000C82054F0BFFE309830B94FF6FF739CA2AB
:104680003821102057F0F7FE0120FEF7BBFC3098D0
:1046900030B94FF6FF739AA25021102057F0EBFE6D
:1046A0004FF068083C2054F0A5FEC82055F0D4FC1B
:1046B0003C2054F09FFE002603E061E162E1022EFF
:1046C0006DD003AA06F1300002F80900C6EB06100F
:1046D00000EB8001202000EB811A01246421B4FB4F
:1046E000F1F000F1300201FB10410A20B1FBF0F1C2
:1046F000BA703031F970B4FBF0F100FB114030308A
:104700003871022055F0A8FC012203A9814841F02C
:104710003DF8E0B3082847D000202E907D4841F0B6
:1047200068FA0423524600E08EE025A90120FEF736
:1047300085FF04230AF104022EA90120FEF77EFF63
:104740002E9925980AF1080A08442590022E04D0D3
:10475000641CA4B2B4F5D47FC0D9761CF6B2032E83
:10476000ADD3BAF1080F6FD903A848443021817046
:10477000F9702E203871622078716920B8716E202E
:10478000F87100203872012203A9624801E00BE0B1
:1047900005E040F0FBFFE8B3082876D0C4E003A9A9
:1047A000332001F8090091E75A48C0682E903098EC
:1047B00010B101281AD037E0B8F5DC7F0CD348F6E9
:1047C0007F604FF0380800904FF4D4734FF420729C
:1047D0004146002057F0D2FE4FF6FF7303AA414630
:1047E000102057F048FE08F118081DE035207043EE
:1047F00004EBC0006421484340F25131B0FBF1F0BA
:104800002F99884210D000212F904FF47842C0B2E7
:10481000202300E039E0CDE9000202914FF4AC72B0
:10482000111DF02058F0BAFADDF894B025B1012D31
:104830000BD0022D0BD00EE024483FF05DF950B9AB
:10484000344841F0D6F9A2E093E0334800E0334821
:1048500000682328F4D12CAB4FF4007230492D4866
:1048600041F031F8BDF8B030002B3FF457AF0028CD
:104870007FF454AF5A462A490120FEF7DFFEBDF807
:10488000B0108B44C4F020F9D0E72CAB4FF4007289
:104890002349204841F017F830B9BDF8B000162878
:1048A00042D3162300223DE03EE000005C3D0E08AE
:1048B000F4050020475A534B5F4D50335F5631305B
:1048C000305F3230313730313232320004E0002094
:1048D000303A2F616476657274303000303A2F4D73
:1048E0004C4B2F4D50332F6164766572743030001D
:1048F00045726173655F436869702E2E2E0000005B
:1049000045726173655F43686970207375636365A1
:1049100065640000E0DD002098030020F40300201F
:1049200004DE0020F74902E01623002226A9012018
:10493000FEF784FE04234FF4965225A90120FEF7CA
:104940007DFE25980423C043259041F2C42225A969
:104950000120FEF773FEC82054F04CFD4FF4FA70AE
:1049600055F07AFBC82054F045FD002031B0BDE879
:10497000F08F2D98401CC0B22D900228FFF433AE6A
:10498000E148E2496D1CEDB2032DFFF417AE4FF480
:10499000FA7054F02FFD0120E8E72DE9F14F0027D0
:1049A000B0B0B946ADF88C703C46D64E2F9705E0B6
:1049B00024B1012C08D0022C08D00AE0D4483FF0E2
:1049C0009BF8002864D004E0026800E00A68232A0B
:1049D00060D1C4F079F8002500208DF80C0015B1E5
:1049E000012D06D00AE0CBA103A853F07FFA0227DD
:1049F00004E0C9A103A853F079FA0B27012C02D0D7
:104A0000022C02D004E0312000E032208DF80C00AE
:104A100003A926A841F02CFAB0BB012D05D1C2A1F3
:104A200003A853F063FA7F1CFFB2C0A103A853F0A0
:104A30005DFA012203A9BF4840F0A8FE28B108286A
:104A400003D0BC4841F0D5F81EE023AB4FF4007210
:104A5000AC49B84840F037FFB64841F0CAF8307862
:104A6000472811D170785A280ED1B07853280BD12D
:104A7000F0784B2808D130795F2805D17079462825
:104A800002D1B0794C280FD06D1CEDB2022DA3D30A
:104A90009D489E49641CE4B2032C89D34FF4FA70FC
:104AA00054F0A8FC012061E700201CA9954A125C83
:104AB0000A54401C1828F9D318235A020020FEF784
:104AC000BDFD0020259043F2240024904FF0500BB0
:104AD0004FF42025C82054F08DFC309830B94FF6A3
:104AE000FF7395A23821102057F0C5FC03A80126BA
:104AF000074401E0642E14D24FF06400B6FBF0F1DD
:104B000000FB11614FF00A00B1FBF0F101F130013F
:104B10007970B6FBF0F100FB116000F13000B87065
:104B200025E04FF06401B6FBF1F000F1300201FB2B
:104B300010614FF00A00B1FBF0F17A7001F1300121
:104B4000B970B6FBF0F100FB116000F13000F870B5
:104B50000DD14FF02E0038714FF0620078714FF098
:104B60006900B8714FF06E00F87187F808A04FF037
:104B7000020055F071FA012203A96E4840F006FECA
:104B8000F0B308284CD04FF000086A4841F031F8E3
:104B90005FEAC87001D008F101088DF87050280A4A
:104BA0008DF87100280C8DF872004FEA5808280E15
:104BB0008DF873008DF874804FEA18208DF8750019
:104BC0004FEA18408DF876004FEA18608DF87700AC
:104BD0008DF878904FEA19208DF879004FF0000A8F
:104BE0008DF87AA08DF87BA00C231CA95046249A3E
:104BF000FEF724FD2598284400EB1540404400E0D2
:104C00000EE000EB1840484480B22590249805EB54
:104C100048050C3024903098D8B3012870D0ADE00E
:104C200044484FF00009CA46D0F80C80009524B1E2
:104C3000012C0AD0022C0AD00DE035483EF05CFF72
:104C400048B93C4840F0D5FF28E72F4800E02F48FE
:104C500000682328F5D123AB4FF400722949354869
:104C600040F031FEBDF88C1000298ED000288CD188
:104C70008A44B1F5007F09D2C80707D0214A002035
:104C8000C245505402D3491CADF88C1000201D4978
:104C90000AE01BE00B180A5C93F801C0801C09EBCA
:104CA0000C231A441FFA82F9BDF88C209042F1D3EC
:104CB00093B214490020009AFEF7C0FCBDF88C1096
:104CC000009808440090C3F0FFFEB0E7BBF5DC7F1E
:104CD0000CD348F67F604FF0380B00904FF4D4733C
:104CE0004FF420725946002057F048FC4FF6FF73EE
:104CF00003AA5946102057F0BEFB0BF1180B3DE0FC
:104D000026E0000004DE002098030020F4030020C9
:104D100004E00020303A2F00303A2F4D4C4B2F66E4
:104D20006C617368000000002F00000030302E62BC
:104D3000696E0000E0DD0020436F70792062696ECB
:104D400020746F20666C6173682E2E2E00000000A8
:104D500064207043B221B0FBF1F02F9988420DD04E
:104D60002F904FF47842C0B28DE8050420234FF411
:104D7000AC724FF49271F02058F010F8761CB6B275
:104D8000B22E7FF6B7AE8DF87050280A8DF87100FC
:104D9000280C8DF87200280E8DF8730024988DF879
:104DA0007400000A8DF8750024980C23000C8DF80F
:104DB0007600249843F21802000E8DF877002598AB
:104DC0008DF87800000A8DF8790000208DF87A00BF
:104DD0008DF87B001CA9FEF731FCC82054F00AFBBB
:104DE0004FF4FA7055F038F9C82054F003FB002056
:104DF000BCE52DE9F04F9DB000258DF80450AFF2D1
:104E0000EC0101A853F072F80024F64EF64F4FF073
:104E100031084FF0320909E044B1012C0BD0022CCB
:104E20000DD0012C0FD0022C10D011E0EF483EF035
:104E300063FE90B10CE0306823280ED103E038689F
:104E400023280AD102E08DF8048001E08DF8049057
:104E500001A913A841F00CF820B1641CE4B2032CA2
:104E6000DAD315E0032C13D2E1A101A853F03EF8E8
:104E700001A841F078F9DFA101A853F037F801A8A3
:104E800041F071F9AFF2601101A853F02FF801E081
:104E90008DF804509DF804001E2530384FF6FF7B36
:104EA000032870D2D5A101A853F020F80A230022CC
:104EB00010A90120FEF772FA0A22D8A110A852F018
:104EC000CAFF00285FD104234FF496520EA9012097
:104ED000FEF764FA042341F2C4220FA90120FEF771
:104EE0005DFA0F98C1430E980F918842EAD1C1072D
:104EF00001D0401C0E9020200E9A01AB0F900F990C
:104F0000091F22FA01F000F00F000F918DF8400008
:104F10000A2801D2303000E057308DF84000585553
:104F20006D1C0029EBD11E2D7AD93CB1012C12D079
:104F30003868232807D001201DB018E5AB483EF0A3
:104F4000DBFD0028F7D000250A2201A9B64840F071
:104F50001DFC10B14FE03068EBE75B46B3A238218F
:104F6000102057F088FA4FF40079DDF838803FE0E0
:104F700024B1012C08D0022C08D00AE09B483EF056
:104F8000BBFDC0B305E04BE0306800E03868232883
:104F900031D14B462A46AA490120FEF7FFF9642089
:104FA0006843B0FBF8F00F9048F67F6010234FF491
:104FB000A07A00901A463821504657F0DFFACDF813
:104FC00000B00223382150460F9A57F086FA0E9A05
:104FD0001CAB4A4500D34A469949934840F002FD2C
:104FE0001C990E9805F50075401A0E90C3F06CFDE3
:104FF0000E980028BCD18C4840F0FBFD0E985B4613
:1050000060B190A25021102057F035FA5B4601AAFA
:105010006821102057F02FFA00208DE78FA2F1E7CA
:105020005C465B4694A25021102057F024FA234698
:1050300001AA6821102057F01EFA7CE72DE9F04FF5
:105040009DB000258DF80450AFF2383101A852F020
:105050004DFF0024634EDFF8908131274FF0320975
:1050600009E044B1012C0BD0022C0DD0012C0FD043
:10507000022C10D011E05D483EF03EFD90B10CE0F6
:10508000316823290FD103E0016823290BD102E005
:105090008DF8047001E08DF8049001A912A840F089
:1050A000E7FE28B14046641CE4B2032CD9D315E0D6
:1050B000032C13D24EA101A852F018FF01A841F011
:1050C00052F872A101A852F011FF01A841F04BF86B
:1050D000AFF2AC3101A852F009FF01E08DF80450A5
:1050E0009DF8040016253038032871D269A101A863
:1050F00052F0FCFE0C239F023A460EA90020FEF758
:105100004DF90C226CA10EA852F0A5FE00285FD12B
:10511000042343F2180211A9FEF740F91198F9434C
:10512000694A01449142E0D2C10701D0401C11906C
:10513000A0F54053202001AA1193001F27FA00F187
:1051400001F00F018DF838100A2901D2303100E04A
:1051500057318DF8381051556D1C0028EDD12221A2
:105160002020001F23FA00F505F00F058DF83850B8
:105170000A2D01D2303500E057358DF8385055549E
:10518000491C0028EDD1222922D93CB1012C11D093
:10519000D8F80000232806D00120CDE613483EF0C1
:1051A000ABFC0028F8D00A2201A91F4840F0EEFA13
:1051B00010B1D7E03068EDE74FF6FF7343A2382116
:1051C000102057F058F94FF4007ADDF84490C5E00C
:1051D000DFE024B1012C03D0022C02D08DE081E06D
:1051E00085E086E098030020F403002004E000201E
:1051F0004D4C4B002F4D5033000000006D70335F5D
:1052000061646430303030303030305F6C656E3027
:10521000303030303030302E62696E00475A534B98
:105220005F4D50335F560000E0DD00205772697417
:10523000696E67204D503320646174612E2E2E00FC
:1052400004DE00204D703320746F2062696E207779
:1052500072697465204661696C2100004D703320CD
:10526000746F2062696E207772697465207375634C
:1052700063657373210000004469736B204D6F7583
:105280006E74204661696C21000000002F666C611D
:1052900073680000666C6173685F6164643030300D
:1052A00030303030305F6C656E3030303030303020
:1052B000302E62696E000000475A534B5F464C41E6
:1052C00053485F5600000000FFCF7F00577269749B
:1052D000696E6720666C61736820646174612E2E4C
:1052E0002E000000F6483EF007FCD8B305E0306819
:1052F00001E0D8F80000232834D153463A46F1495A
:105300000020FEF74BF8A7F5405064214843B0FB5E
:10531000F9F548F67F6010234FF4A07B00901A4601
:105320003821584657F02AF94FF6FF7000900223B3
:105330002A463821584657F0D0F8119A1BAB5245EF
:1053400000D35246DF49E04840F04CFB1B991198CE
:1053500007F50077401A1190C3F0B6FB11980028AA
:105360007FF437AFD84840F044FC11984FF6FF73F4
:1053700068B1D6A25021102057F07DF84FF6FF7388
:1053800001AA6821102057F076F80020D4E5D6A2B3
:10539000F0E74FF6FF742346AFF22412502110209D
:1053A00057F069F8234601AA6821102057F063F8E6
:1053B000F2E62DE9FF4F95B000210391DDF858800A
:1053C0005A21202300274FF4784CB8F1010F1CD04C
:1053D000B8F1020F37D0B8F1030F4ED04346B8F101
:1053E000040F6CD09C462823BCF1050F7ED0BCF185
:1053F000060F7CD067F30F0083461598032877D2F9
:1054000002F07BFE002874D1C4E061F30F006CF35E
:105410001F40009783464FF4A471CDE901C262F3A7
:105420000F0448464FF0DC0861F30F0563F30F06E5
:1054300067F30F0068F31F4461F31F4567F31F46CE
:1054400081460A4639E061F30F006CF31F40834642
:1054500062F30F04D02060F31F444FF4AE7060F38A
:105460000F05001F60F31F45484663F30F0667F3FF
:105470000F0067F31F468146BFE761F30F006CF32F
:105480001F409846009783464FF4987A4946CDE9E5
:1054900001C262F30F0440F20A202C2367F30F01CC
:1054A0006AF30F0563F30F06894668F31F4460F340
:1054B0001F4567F31F4602465146404667E061F3C9
:1054C0000F006CF31F4083464FF49C7162F30F048E
:1054D0004FF0960A61F30F054FF4A17024236AF38D
:1054E0001F4460F31F4563F30F0603E00EE02FE057
:1054F0005CE0E0E00097CDE901C2C84667F30F0821
:10550000024667F31F46C146504640E061F30F0074
:1055100048F27D61009761F31F40CDE901124FF021
:10552000D40A834662F30F044FF41678CC46302039
:105530006AF30F0563F30F0667F30F0C60F31F4464
:1055400068F31F4567F31F46E146424651461EE099
:1055500061F30F004FF6FF7161F31F408346009720
:10556000C820CDE9011262F30F044FF4FA78CC465B
:1055700060F30F0563F30F0667F30F0C60F31F442E
:1055800068F31F4567F31F46E1464246014657F060
:1055900005FC32E7159802F0AAFD8DE870025B4623
:1055A0000DAA0021032005F0DFFF0BE00DD11898B4
:1055B0005B46CDE903908DE870000DAA0021032021
:1055C000B8F050F80390002875D10A22AFF2B43138
:1055D0004C4852F040FC00286DD1DFF8288198F843
:1055E0000A00BAF06DFE642110FB01F70020BAF04A
:1055F00067FE00EB800007EB400798F80C00BAF05C
:105600005FFE414938440968884254D93F4815999A
:105610004068032903D23E490844C00D04E03D49D7
:105620000844491CB0FBF1F01090002844D001461A
:105630006420B0FBF1F00E9000200F90364831212D
:10564000817505A8FEF76CFF20234FF4600205A9C1
:105650000020FDF7F3FF0020B3E00E994F460AFB50
:1056600001F060F31F4600EB510080B260F30F07BA
:105670008046159803280BD28DE8F0000AF101004E
:10568000C1B25B460DAA4FF0030005F06DFF10E0BC
:1056900001D003980EE018985B46CDE903700AF13B
:1056A00001008DE87000C1B20DAA4FF00300B7F001
:1056B000D9FF039018B1002019B0BDE8F08F2DE09C
:1056C00004E0002004DE0020E0DD0020466C617371
:1056D0006820746F2062696E207772697465204655
:1056E00061696C2100000000466C61736820746F72
:1056F0002062696E207772697465207375636365D3
:1057000073732100000080C0E80000203CBB002033
:10571000FFFF7F00FFFF7C00F4050020FE48CDF86E
:105720004C8004900E9968F31F4608EB510080B23C
:1057300060F30F071190F9490D98B94601444FF4F1
:10574000C830B1FBF0F04FF00008129034E00D9F2C
:105750004FF4C830874200D90746C3F0B5F93B463D
:1057600001200F9A0499FDF769FF0D9808F10108CF
:10577000C01B0D900F9838440F9004983844049043
:105780001698C8B10E981299400800FB08F0B0FBBB
:10579000F1F01199814200D20846139B4FEA1B4257
:1057A0001844C0B2CDE90002A1B20291B3B22A0CF2
:1057B000A9B2200C57F0F2FA12998845C7D30AF122
:1057C0000100109982468842FFF447AF169858B1FD
:1057D000A2B24FEA1B4164208DE80700B3B22A0C45
:1057E000A9B2200C57F0DAFACD493020887505A807
:1057F000FEF796FE20234FF4600205A90020FDF776
:105800001DFF012058E72DE9FF4F8FB04FF0000A30
:105810004FF478484FF02009012918D0022935D0DB
:1058200003294DD004296CD0282305297ED00629D0
:105830007DD0002161F30F0083460F98DFF8E482EA
:10584000032875D202F059FC002872D1C7E05A2112
:1058500061F30F0068F31F408346DC2000210091B4
:105860004FF4A47CCDE9018262F30F074B4663F34A
:105870000F046CF30F0561F31F4461F30F066246DA
:1058800060F31F476CF31F451146A5E05A2161F3F1
:105890000F0068F31F40834662F30F07D02060F3C8
:1058A0001F474FF4AE7060F30F05001F60F31F45F4
:1058B000002069F30F0460F31F4460F30F06BCE798
:1058C0005A2161F30F002C23002168F31F40834607
:1058D000484600914FF49879CDE9018262F30F07B1
:1058E00040F20A2C63F30F0469F30F0561F31F44C0
:1058F00061F30F0660F31F476CF31F45624649468C
:105900006AE05A2161F30F004FF49C7168F31F4065
:1059100062F30F074FF0960961F30F054FF4A17C76
:10592000834669F31F476CF31F4503E00FE032E045
:1059300063E0C2E0242300200090CDE9018263F3FC
:105940000F0460F31F4460F30F06624621E05A2102
:1059500061F30F0048F27D6C6CF31F40834600201A
:105960000090CDE901C262F30F074FF0D4084FF465
:10597000167168F30F054FF0300961F31F4563F3AB
:105980000F040A4669F31F4760F31F4460F30F06D4
:105990004146484620E05A2161F30F004FF6FF715F
:1059A0004FF0000C61F31F408346CDF800C0C820C3
:1059B000CDE9011262F30F074FF4FA7860F30F0597
:1059C00063F30F0460F31F4768F31F456CF31F4434
:1059D0006CF30F064246014657F0E0F92DE70F98A9
:1059E00002F085FB00970396CDE901545B460DAAB2
:1059F00000211C9805F0B8FD0CE017D11298009713
:105A0000CDE90360CDE901545B460DAA00211C9845
:105A1000B7F028FE5FEA000A4FD10F98032805D29D
:105A2000D8F8040040490844C00D06E0D8F8040046
:105A30003E490844491CB0FBF1F05FEA00093CD044
:105A4000D8F80400C8B33A4A904236D235483949AA
:105A50000068884231D16421B1FBF9F00E9000203A
:105A600030E00E9908FB01F060F31F4400EB510099
:105A700060F30F060F9803280CD200970396CDE928
:105A8000015408F10100C1B25B460DAA1C9805F053
:105A90006BFD0EE00ED112980097CDE90360CDE9C1
:105AA000015408F10100C1B25B460DAA1C98B7F081
:105AB000D9FD8246BAF1000F02D0002013B0FCE5F8
:105AC00008F1010080464845CBD3DFF858801A48DA
:105AD000D8F800100A0CC2810182D8F804100A0C10
